:020000020000FC
:102000004F938F939F930F93F89445B14C7F45B9AD
:1020100044B1436044B94BB14F704BB94AB1406FC2
:102020004AB9789490E084E60E94D01091E48FEF52
:102030000E94D010F8944BB14F7040634BB9789424
:102040000E94721091E18FEF0E94D010F8944BB172
:102050004F7040634BB978940E94721090E088E70B
:102060000E94D010F8944BB14F7040634BB97894F4
:102070000E947210F8944BB14F7040624BB9789443
:102080000E94721008E20E9480100CE00E948010F2
:1020900006E00E9480100E94BE100F919F918F91C8
:1020A0004F9108950E9457100E94BD1008950F93FC
:1020B000012F0E946C100F9108958F939F930F939F
:1020C0000F7300640E94801090E088E20E94D0109C
:1020D0000F919F918F9108950F9300680E94801037
:1020E0000F9108958F939F93299A90E084E10E9425
:1020F000D010299884E10E94D0109F918F9108956B
:102100000F931F934F93102F107F000F000F000F9E
:10211000000F2898F8944BB14F70412B4BB978942D
:102120000E947210F8944BB14F70402B4BB97894C9
:102130000E9472104F911F910F9108950F931F935A
:102140004F93102F107F000F000F000F000F289AE1
:10215000F8944BB14F70412B4BB978940E94721098
:10216000F8944BB14F70402B4BB978940E94721089
:1021700028984F911F910F910895E0CF9F938F93CF
:102180000F9301E00E94801097E08FEF0E94D01023
:102190000F918F919F9108952A9A08952A980895F2
:1021A0004F9344E04A95F1F70197D9F74F9108957D
:100000000C940B01424F4F4D2120594F5520415226
:1000100045204E4F57204120544552524F5249538C
:040020005420000068
:04002C000C94050229
:100200000F9300917A00006800937A0000E6009353
:100210007C000F9108950E9400100E94000120E0D0
:1002200030E040E050E070EF00E314E00E94521034
:1002300015E00E94521017E00E94521018E00E9430
:1002400052100AE316E00E9452100E94DB01009156
:100250007900007F003F11F00C943A01703159F1A0
:10026000703369F17030F9F0703609F1703939F096
:10027000703F59F3702F0E946C010C9425010E946D
:10028000ED0100E000930001E0910001E030E1F3B6
:10029000E0E0E09300010E9482010E946C010C9456
:1002A00044010C9451010E94BC010C943A010E943B
:1002B00082010C943A010E94D2010C943A010E94EE
:1002C000B3010C943A010E94E8010E946C0103E51D
:1002D00010E00E945210089560E3022F060F14E010
:1002E0000E945210032F060F15E00E945210042F97
:1002F000060F17E00E945210052F060F18E00E940B
:10030000521008955A955F3F09F0089559E04A95B3
:100310004F3F09F0089545E03A953F3F09F00895B1
:1003200039E02A952F3F09F0089500E214E00E9479
:10033000521015E00E94521016E00E94521017E071
:100340000E94521018E00E9452102FE170E30E94A8
:1003500019023EE141E0431B431B51E0531B0E9445
:100360003B020C9451013A953F3F09F0089539E062
:100370002A952F3F69F1089553955A3009F0089551
:1003800050E04395463009F0089550E040E0339541
:100390003A3009F0089550E040E030E023952630EF
:1003A000B9F0089533953A3009F0089530E0239577
:1003B000263071F0089500917A00006400937A006D
:1003C0000E94E301089500917A000074E1F7089516
:1003D00020E030E040E050E008950F93F8940027CB
:1003E000009385000093840002E000936F000DE00D
:1003F000009381000DE30093890008E000938800DA
:1004000000270DBB78940F9108950F930FB70F93AA
:1004100001E0009300010F910FBF0F911895A3E029
:1004200094E68FEF8A95F1F79A95D9F7AA95C1F7D7
:100430000895E4E0F0E00895622F0E9422020E94F5
:10044000190208950591003011F00C942A0200E27F
:100450000E941902162F103114F40C94310270E32B
:10046000170F603014F40C9437020E9452106395F9
:10047000603244F308950E941C022A95241711F05B
:0E0480000C944302252F0E940F020E943B02A3
:00000001FF
